:100000000C9434000C943E000C943E000C943E0082
:100010000C943E000C943E000C943E000C943E0068
:100020000C943E000C943E000C943E000C943E0058
:100030000C943E000C943E000C943E000C943E0048
:100040000C943E000C943E000C943E000C943E0038
:100050000C943E000C943E000C943E000C943E0028
:100060000C943E000C943E0011241FBECFEFD8E04C
:10007000DEBFCDBF0E9443000C9468000C940000CA
:100080000E94460008950E944000FFCF8FEE8093AB
:10009000640084B114B885B19FEF95B987B18078B9
:1000A00087B988B18F6788B98AB11AB88BB19BB903
:1000B00040E060E881E690E00E94610013BE15BE5A
:1000C00008952FB7F894FC01608340832FBF0895F3
:0400D000F894FFCFD2
:00000001FF
