:100000000C94D1000C94F9000C94F9000C94F900B4
:100010000C94F9000C94F9000C94F9000C94F9007C
:100020000C94F9000C94F9000C94F9000C94F9006C
:100030000C94F9000C94F9000C94F9000C94F9005C
:100040000C94A1020C94F9000C94F9000C94F900A2
:100050000C94F9000C94F9000C94F9000C94F9003C
:100060000C94EB020C94F900080E0B0E0E0E110E00
:10007000140E170E200E230E00000000250028008D
:100080002B0000000000240027002A00008040C050
:1000900020A06010905030B070088848C828A86828
:1000A00018985838B878048444C424A46414945428
:1000B00034B4740C8C4CCC2CAC6C1C9C5C3CBC7C68
:1000C000028242C222A26212925232B2720A8A4A58
:1000D000CA2AAA6A1A9A5A3ABA7A068646C626A638
:1000E0006616965636B6760E8E4E2EAE6E1E9E5EF8
:1000F0003EBE7E018141C121A16111915131B17199
:10010000098949C929A96919995939B979058545CB
:10011000C525A56515955535B5750D8D4DCD2DADFF
:100120006D1D9D5D3DBD7D038343C323A363139379
:100130005333B3730B8B4BCB2BAB6B1B9B5B3BBB1F
:100140007B078747C727A76717975737B7770F8F5B
:100150004F2FAF6F1F9F5F3FBF7F00000000230046
:100160002600290004040404040404040202020218
:10017000020203030303030301020408102040806A
:1001800001020408102001020408102000000008E9
:10019000000201000003040700000000000000004E
:1001A000F11E11241FBECFEFD8E0DEBFCDBF13E09C
:1001B000A0E0B1E0E4EAF7E402C005900D92A234B9
:1001C000B107D9F725E0A2E4B3E001C01D92AD3A32
:1001D000B207E1F710E0C1EDD0E004C02197FE01C5
:1001E0000E946720C03DD107C9F70E94EB150C940F
:1001F000D0230C940000CF92DF92EF92FF920F93E6
:100200001F93CF93DF936C017A018B01C0E0D0E0A4
:10021000CE15DF0589F0D8016D918D01D601ED91E4
:10022000FC910190F081E02DC6010995892B11F414
:100230007E0102C02196ECCFC701DF91CF911F91C3
:100240000F91FF90EF90DF90CF9008953FB7F89413
:1002500080918E0390918F03A0919003B0919103B0
:1002600026B5A89B05C02F3F19F00196A11DB11D11
:100270003FBFBA2FA92F982F8827820F911DA11D4C
:10028000B11DBC01CD0142E0660F771F881F991F89
:100290004A95D1F708958F929F92AF92BF92CF92D5
:1002A000DF92EF92FF926B017C010E9426014B01CD
:1002B0005C01C114D104E104F104F1F00E942601B3
:1002C000DC01CB0188199909AA09BB09883E934032
:1002D000A105B10570F321E0C21AD108E108F108C7
:1002E00088EE880E83E0981EA11CB11CC114D104B5
:1002F000E104F10419F7DDCFFF90EF90DF90CF908C
:10030000BF90AF909F908F90089585ED8093BC0033
:100310008091BC0084FDFCCF1092E30308954091CE
:100320006403262F30E0240F311D21323105DCF427
:100330002091E3032430C9F4FC0180E090E08617AB
:1003400058F4309164032191DC01AE5BBC4FA30FE4
:10035000B11D2C930196F3CF80916403680F6093D5
:10036000640380E0089581E0089582E0089508958F
:10037000E0919C0380919B03E81730F4F0E0E35692
:10038000FC4F808190E008958FEF9FEF089590914A
:100390009C0380919B03981750F4E92FF0E0E356FB
:1003A000FC4F208130E09F5F90939C0302C02FEFB1
:1003B0003FEFC901089580919B0390E020919C0339
:1003C000821B91090895CF92DF92EF92FF920F93D3
:1003D0001F93CF93DF937C01262F972F8A01809163
:1003E000E403882391F0C62FD72F6E01C40ED51ECB
:1003F000CC15DD0571F06991D701ED91FC9101906B
:10040000F081E02DC7010995F3CF642F822F0E9460
:100410008F01C801DF91CF911F910F91FF90EF9055
:10042000DF90CF900895CF93DF931F92CDB7DEB7C3
:1004300069832091E4032223D1F020910704203224
:1004400040F021E030E0FC013383228380E090E043
:1004500015C08091E503E82FF0E0EA51FC4F998147
:1004600090838F5F8093E5038093070405C061E06C
:10047000CE0101960E948F0181E090E00F90DF9104
:10048000CF910895089580E090E008950E948C2314
:10049000833081F028F4813099F08230A1F0089502
:1004A0008730A9F08830B9F08430D1F48091800091
:1004B0008F7D03C0809180008F77809380000895A6
:1004C00084B58F7702C084B58F7D84BD08958091F7
:1004D000B0008F7703C08091B0008F7D8093B00013
:1004E00008951F93CF93DF93282F30E0F901E4574D
:1004F000FE4F8491F901E858FE4FD491F901EC596F
:10050000FE4FC491CC23C9F0162F81110E944802DE
:10051000EC2FF0E0EE0FFF1FE858FF4FA591B491CC
:100520008FB7F894111105C09C91ED2FE095E92348
:1005300002C0EC91ED2BEC938FBFDF91CF911F9117
:1005400008951F920F920FB60F9211242F933F938D
:100550008F939F93AF93BF9380918A0390918B0366
:10056000A0918C03B0918D033091890323E0230F78
:100570002D3720F40196A11DB11D05C026E8230FDB
:100580000296A11DB11D2093890380938A03909345
:100590008B03A0938C03B0938D0380918E03909175
:1005A0008F03A0919003B09191030196A11DB11DFD
:1005B00080938E0390938F03A0939003B093910345
:1005C000BF91AF919F918F913F912F910F900FBE4F
:1005D0000F901F9018951F920F920FB60F92112433
:1005E0002F933F934F935F936F937F938F939F933B
:1005F000AF93BF93EF93FF938091B900887F8036CC
:1006000009F49CC068F5883209F45BC090F480312D
:1006100009F454C038F4882309F4F6C0883009F48A
:100620004DC0F6C0883109F44CC0803209F45DC079
:10063000EFC0803409F468C048F4803309F455C031
:10064000883309F0E5C08093E103D8C0803509F410
:100650004FC0883509F45DC0883409F0D9C0D6C0D0
:10066000883909F4C7C0A8F4883709F467C038F49A
:10067000883609F463C0803709F460C0C9C088387F
:1006800009F4B8C0803909F45FC0803809F0C0C0EF
:100690005BC0803B09F486C038F4803A09F466C038
:1006A000883A09F47FC0B4C0803C09F4A7C0883CF4
:1006B00009F4A4C0883B09F48AC0AAC08091BE0393
:1006C00010C09091E0038091DF03981770F5E091DE
:1006D000E00381E08E0F8093E003F0E0E154FC4FF3
:1006E00080818093BB0085EC86C08093E1038EC03F
:1006F000E091E00381E08E0F8093E0038091BB00E6
:10070000F0E0E154FC4F80839091E0038091DF039F
:100710006EC0E091E00381E08E0F8093E003809152
:10072000BB00F0E0E154FC4F80838091E203811133
:100730006DC081E08093BD0384EA61C083E0809353
:10074000E30310928803CFCF80918803803208F0B2
:1007500051C0E091880381E08E0F809388038091DF
:10076000BB00F0E0E859FC4F8083BDCF85EC80935F
:10077000BC001092E30380918803803230F4E09152
:100780008803F0E0E859FC4F10826091880370E024
:10079000E0916603F091670388E693E00995109273
:1007A000880336C084E08093E303109265031092BF
:1007B0006403E0916203F0916303099580916403FF
:1007C000811105C081E08093640310924203E0919F
:1007D000650381E08E0F80936503F0E0EE5BFC4FD4
:1007E00080818093BB00909165038091640398178A
:1007F00008F479CF85E88093BC000AC085EC80932B
:10080000BC001092E30304C01092E1030E94850132
:10081000FF91EF91BF91AF919F918F917F916F91D8
:100820005F914F913F912F910F900FBE0F901F90AE
:1008300018954F925F927F928F929F92AF92BF9244
:10084000CF92DF92EF92FF920F931F93CF93DF939C
:10085000742ED22FC0E050E000E010E09801C715E0
:1008600009F466C0E0E0F0E02C014C0E511C000FD2
:10087000111F221F331FD201CC90D12C0E2E02C08B
:10088000CC0CDD1C0A94E2F7CC0CCD2CCC1CDD0882
:10089000D194E12CF12CB1E0CB22DD24EE24FF2415
:1008A0000C291D292E293F294801590141E584229F
:1008B00043E5942240EDA42242EFB422B0E2FB2EA5
:1008C000D12CA82DA170DA26B694A794979487947A
:1008D000FA94F110F6CF7B01E50EF11CD701DC9202
:1008E000EE24E394E50E48015901B7E48B22BCE302
:1008F0009B22B1E6AB22B4EEBB22A0E2FA2ED12CB1
:10090000482D4170D426B694A79497948794FA946E
:10091000F110F6CFDB01AE0DB11DDC925E5F5D170D
:1009200028F43196E830F10509F0A1CFCF5F97CFD9
:10093000DF91CF911F910F91FF90EF90DF90CF90BB
:10094000BF90AF909F908F907F905F904F90089551
:10095000282F082E000C330B205331092A30310583
:1009600010F480530895803231F09FEB980F9A3144
:1009700020F48753089584E208958FEF0895EF924D
:10098000FF920F931F93CF93DF93CDB7DEB7CE5C6B
:10099000D1090FB6F894DEBF0FBECDBF2CE8E22E12
:1009A00020E0F22EDC019C0122533F4FF7014491DD
:1009B0006D9101E010E00C0F1D1F040F111DF801D7
:1009C0006083FFEFEF1AFF0AA217B30779F72EEC47
:1009D000FE013196DC0101900D922A95E1F7C25398
:1009E000DF4F0FB6F894DEBF0FBECDBFDF91CF91C2
:1009F0001F910F91FF90EF9008958F929F92AF9269
:100A0000BF92CF92DF92EF92FF920F931F93CF93FB
:100A1000DF93CDB7DEB7CB55D1400FB6F894DEBF2C
:100A20000FBECDBFF82E8E01005B1E4F63E171E05B
:100A3000C8010E94BD235E0189EAA81A8EEFB80A98
:100A40006EE071E0C5010E94BD23D80111968C9122
:100A5000119780538A3078F412968C9180538A30A3
:100A600050F045E050E0B801C80101960E94A4236F
:100A700080E2F8018083D80112968C9112978053FE
:100A80008A3018F080E312968C936801B0E28B2EC6
:100A900086E0982E900EF6018081082E000C990BAE
:100AA0000E949C23E82E082E000C990B9C012053D9
:100AB00031092A30310518F4D601EC9206C00E94A3
:100AC0009123892BC9F7F6018082FFEFCF1ADF0A45
:100AD0009C10E1CF86E0F801A5E1B5E001900D9210
:100AE0008A95E1F78501F5E0DF2EA4E0EA2EEA0C15
:100AF000D8018C91082E000C990B0E949C23F801C0
:100B000081938F01282F082E000C330B20533109BD
:100B10002A30310558F08154823140F0ECE3F3E0A3
:100B2000D5018D2D01900D928A95E1F7E012E0CF6D
:100B3000F50180819181A281B38180931C059093FE
:100B40001D05A0931E05B0931F058F2D8D3308F052
:100B50008CE393E1EEE9F1E08E010F5F1F4FD801C6
:100B600001900D929A95E1F7F0902105F80193E13B
:100B7000900F2191821301C0F82E9E13FACFFE012F
:100B800032969E012C5E3F4F9191891730F4DF0120
:100B900012979C91891708F0F92EE217F307A1F735
:100BA000F0922105809115050E94A804282F30E0BD
:100BB000A4E2B0E00E946D204B015C01809116051B
:100BC0000E94A804A5019401280F311D411D511D4B
:100BD000AAE0B0E00E947C204B015C0180911705E7
:100BE0000E94A804A5019401280F311D411D511D2B
:100BF000ABE1B0E00E947C204B015C0180911805C4
:100C00000E94A80490E00A97092E000CAA0BBB0BC7
:100C1000A5019401280F391F4A1F5B1FABE1B0E00B
:100C20000E947C204B015C01809119050E94A80460
:100C300090E00A97092E000CAA0BBB0BA5019401AA
:100C4000280F391F4A1F5B1FABE1B0E00E947C20D8
:100C50004B015C0180911A050E94A804282F30E006
:100C6000C9010A97092E000CAA0BBB0B880D991D10
:100C7000AA1DBB1D40911C0521E430E0241B310955
:100C800047FD3395EAE0E29FB001E39F700D112428
:100C90009B012D543F4F40911E0560E370E0641BA3
:100CA000710947FD7395620F731F44EB469F9001D6
:100CB000479F300D112460911D05062E000C770B07
:100CC00061547109E69FA001E79F500D1124420F66
:100CD000531FE0911F050E2E000CFF0BF0979A0199
:100CE0002E0F3F1F4F2D50E060E070E06A017B0146
:100CF000F0E4CF0ED11CE11CF11CA901330F660BEF
:100D0000770B27E0440F551F661F771F2A95D1F7F1
:100D10004C0D5D1D6E1D7F1D6C017D0134E0F69450
:100D2000E794D794C7943A95D1F7C95BDE4FC88250
:100D3000C754D140CA5BDE4FD882C654D140CB5B8A
:100D4000DE4FE882C554D140242F2295220F220F76
:100D5000207CC55BDE4F2883CB54D140E2E0769502
:100D6000679557954795EA95D1F7C65BDE4F48835F
:100D7000CA54D140C75BDE4F5883C954D1408295D5
:100D8000807F962F9F70892BC85BDE4F8883C85465
:100D9000D140C45BDE4F1882CC54D140C35BDE4FE0
:100DA0001882CD54D140C25BDE4F1882CE54D14060
:100DB000C15BDE4F1882CF54D14022EA4BE0BE0126
:100DC0006D557F4FCE018B5B9E4F0E94190490E0C2
:100DD00040E061E070E0592F27E030E080E050FF14
:100DE00007C0FB01022E01C0EE0F0A94EAF78E2B1A
:100DF00056952150310998F7823A60F4F801E80FCE
:100E0000F11DA3EAB0E0AC0FBD1FA40FB11D8C9182
:100E100080834F5F423A18F49F5F9F3FE1F682EA7A
:100E2000F801DE01AD55BF4F01900D928A95E1F7B3
:100E300082EAE1EBF1E0D80101900D928A95E1F7A9
:100E4000BE016D557F4F28E034E0F80142EA400FC3
:100E50009191DB018D91BD01880F890FD9018D938F
:100E60009D014E13F5CFC55ADE4F0FB6F894DEBF85
:100E70000FBECDBFDF91CF911F910F91FF90EF90EB
:100E8000DF90CF90BF90AF909F908F900895282FC4
:100E9000082E000C330B205331092A30310510F491
:100EA000805308959FEB980F9A3110F4875308955B
:100EB000803261F08B3261F08D3261F08E3261F000
:100EC0008F3261F08F3361F08FEF089584E20895DF
:100ED00085E2089586E2089587E2089588E20895FC
:100EE00089E208954F925F926F927F928F929F92C4
:100EF000AF92BF92CF92DF92EF92FF920F931F9328
:100F0000CF93DF938C01EB01FC0180810E944707A6
:100F1000282F30E0AAE2B0E00E946D206B017C0136
:100F2000F80181810E944707A7019601280F311D12
:100F3000411D511DAAE2B0E00E947C206B017C01A2
:100F4000F80182810E944707A7019601280F311DF1
:100F5000411D511DAAE2B0E00E947C206B017C0182
:100F6000F80183810E944707A7019601280F311DD0
:100F7000411D511DAAE2B0E00E947C204B015C01A2
:100F8000F80184810E944707880E911CA11CB11CA6
:100F9000F80185810E944707282F30E0AAE2B0E0DF
:100FA0000E946D206B017C01F80186810E94470739
:100FB000A7019601280F311D411D511DAAE2B0E085
:100FC0000E947C206B017C01F80187810E94470709
:100FD000A7019601280F311D411D511DAAE2B0E065
:100FE0000E947C206B017C01F80180850E944707EC
:100FF000A7019601280F311D411D511DAAE2B0E045
:101000000E947C206B017C01F80181850E944707CA
:10101000C80ED11CE11CF11CF80182850E94470713
:10102000282F30E0AAE2B0E00E946D202B013C01A5
:10103000F80183850E944707A3019201280F311D03
:10104000411D511DAAE2B0E00E947C202B013C0111
:10105000F80184850E944707A3019201280F311DE2
:10106000411D511DDA01C901880C991CAA1CBB1C29
:101070008C019D014FE036952795179507954A9568
:10108000D1F70170112722273327800E911EA21E4F
:10109000B31ECC0CDD1CEE1CFF1C8D012227332758
:1010A0000170112722273327C00ED11EE21EF31E26
:1010B0009F77AA27BB279058AF4FBF4F9501840158
:1010C00074E036952795179507957A95D1F70A8399
:1010D00019832883CE82DD82EC822F2D2F7082949B
:1010E000E0EF8E22822A8B8288879F8319861A8658
:1010F0001B861C86DF91CF911F910F91FF90EF907F
:10110000DF90CF90BF90AF909F908F907F906F9027
:101110005F904F900895EF92FF920F931F93CF939C
:10112000DF93FC0101900020E9F73197E81BED30D7
:1011300030F0EC017C018DE0E80EF11C09C020E2EA
:10114000DC01AE0FB11D2C93EF5FEE30C9F7F1CF8C
:101150000881002E000C110BC8010E949523892BD9
:1011600021F0C8010E949C2388832196CE15DF05BB
:1011700079F7DF91CF911F910F91FF90EF90089534
:101180000F931F93CF93DF93CDB7DEB7C95BD140E9
:101190000FB6F894DEBF0FBECDBF8E0101561E4FB5
:1011A0008EE0F80111928A95E9F762E071E0C801DA
:1011B0000E94BD23C8010E948B08BE0163557E4F6B
:1011C000C8010E9472072EEC4DE0BE0160537F4FB4
:1011D000CE0183559E4F0E941904CE0180539F4F2C
:1011E0000E94BF044EEC50E0BE0160537F4FCB0124
:1011F00001960E94A423C053DF4F1882C05DD040E7
:101200008FECE3E5F2E0DE01119601900D928A95F4
:10121000E1F7BE0160537F4F28E034E0DE01119614
:101220004FEC4A0F9D91FB018191BF01880F890FFF
:10123000F90181939F014A13F5CFC754DE4F0FB6D2
:10124000F894DEBF0FBECDBFDF91CF911F910F91FC
:101250000895CF92DF92EF92FF920F931F93CF9357
:10126000DF93CDB7DEB7C358D1400FB6F894DEBFD9
:101270000FBECDBF7E0187E9E81A8EEFF80A8EE037
:10128000D7011D928A95E9F762E071E0C7010E94DB
:10129000BD23C7010E948B08BE0169587E4FC7015C
:1012A0000E9472072EEC4DE0BE016F5F7F4FCE01B2
:1012B00089589E4F0E941904CE0101960E94BF04D6
:1012C0009E012C5D3E4F85E4F90111928A95E9F764
:1012D000FE0133966901A90165E4F62EF20ECF01F5
:1012E0000297DC018C918170880F880F908191703A
:1012F000892BBF0161507109DB019C91092F01709D
:1013000010E0B801660F771F862BDA018D93AD01CF
:101310003396FA12E4CFF6018081982F96958927AB
:10132000D6018D936D01FA12F6CFFE01E153FF4F06
:1013300085E5DF011D928A95E9F781E0808381834D
:10134000848381878787868B80A382A382AB83ABCC
:1013500086AB83AFC05FDE4F8883C051D140C95E8A
:10136000DE4F8883C751D140CF5DDE4F8883C152A5
:10137000D140CD5DDE4F8883C352D1408F01A8E0BC
:10138000B4E080E045E54A0FF80191918F0199237F
:1013900011F01C9208C0B901680F711DFB0190810A
:1013A0009F5F9C938F5F11964A13EECFCD57DE4F10
:1013B0000FB6F894DEBF0FBECDBFDF91CF911F9166
:1013C0000F91FF90EF90DF90CF900895382F2091EC
:1013D000070490910604213208F049C08091E3038C
:1013E0008111FCCF42E04093E3033093E2033FEFEF
:1013F0003093E1031092E0032093DF03A6EEB3E005
:101400004FEB53E0FA013E2F341B321718F43D9195
:101410003193F9CF1092BE032091BE03990F922B06
:101420009093BE039091BD03913061F41092BD037F
:101430009091BE039093BB009091BC0093FDF8CFB8
:1014400095EC01C095EE9093BC009091E30392302F
:10145000E1F39091E1039F3F79F08091E1038032C5
:1014600041F08091E103803331F084E005C081E0F8
:1014700003C082E001C083E01092E50310920704EC
:101480001092E4030895CF93C62F9091A00521E018
:101490002093E403909306041092E503109207044E
:1014A000682F87E095E00E9413026C2F87E095E09B
:1014B0000E94130281E0CF910C94E609CF939091A2
:1014C000A00521E02093E403909306041092E50325
:1014D00010920704682F87E095E00E94130281E0D4
:1014E0000E94E6098091A0059091E3039111FCCF41
:1014F00091E09093E3031092E2032FEF2093E10336
:101500001092E0031092DF039093BE039091BE030C
:10151000880F892B8093BE038091BD03813061F4D5
:101520001092BD038091BE038093BB008091BC00EC
:1015300083FDF8CF85EC01C085EE8093BC008091DF
:10154000E3038130E1F38091E003811103C0C09196
:10155000E00301C0C1E0AFEBB3E02DE933E0F901F6
:101560008E2F821B8C1718F48D918193F9CF1092D6
:101570009C03C0939B0380E090919C03C91729F0C2
:1015800087E095E00E94C701F7CFCF9108950F93B0
:101590001F93CF93DF931F92CDB7DEB78C0183E00B
:1015A00069830E945E0A980133276981613049F49A
:1015B00061E070E001C0660F2A95EAF76095682344
:1015C00007C061E070E001C0660F2A95EAF7682B5A
:1015D00083E00F90DF91CF911F910F910C94430AFC
:1015E0002F923F924F925F926F927F928F929F9233
:1015F000AF92BF92CF92DF92EF92FF920F931F9321
:10160000CF93DF93CDB7DEB7A8970FB6F894DEBFC0
:101610000FBECDBF802E19832B8F388F488B952E10
:101620003B01FA8EE98E892B29F4E0918B05F0912C
:101630008C0504C0E0918D05F0918E05FF27EE0F1B
:10164000FF1FEE0FFF1FE157FA4F6081718182810A
:10165000938124E630E040E050E00E94E020322E0A
:10166000432E542E252E6D877E878F879C8B860177
:101670007501110FEE08FE2C87019501A6016E2D54
:101680007E2D8E2D9E2D0FE10E94E221A12CEAECF1
:10169000BE2EFAE9CF2EABE3DA2EE12CF12C00E0DE
:1016A00010E00E940D2159016A017B018C01232D5C
:1016B000342D452D522D6D857E858F859C890E9408
:1016C00087200FE10E94FD2159016A01A6019501C1
:1016D000550F220B322FA90129873A874B875C8748
:1016E0009501A6016985762F862F962FA32CB42C01
:1016F000C52CD22CED84FE840F851C890E941922F2
:10170000322E232E49875D876E877F872C01282DF7
:1017100039814B8D588D6889792DC3012F3FA7E5FD
:101720003A07A7E44A07A8EF5A07ADE06A07710530
:1017300081059105A9F0A0F0211534404B46544F86
:101740006441710581059105B9F0B0F0812C24E068
:1017500029833BE63B8F44EF488F54E1588B09C007
:10176000812CE8E5E983F7E4FB8F08EF088F1DE0A3
:10177000188B912C612C712CA32CB22CC984DD8484
:10178000EE84FF848201282D39814B8D588D688924
:10179000792DC3010E943E212F8F38A349A35AA35C
:1017A0002C8B3D8B4E8B5F8B8C899D89AE89BF893D
:1017B0000F97A105B10560F4232D322DA601B701C5
:1017C000C20104E00E94E221042D0E942E222AC0C0
:1017D0000C891D892E893F890B351105210531059D
:1017E00040F1232D322D49855D856E857F85C201AF
:1017F00002E00E94E221A32CB22CC984DD84EE8495
:10180000FF8482010E942E2259016A017B01E82F88
:10181000192F04E00E94E2210E2F0E942E2201E0E7
:101820000E94E221822E39834B8F588F688B972E2E
:101830003C01A32CB22CC984DD84EE84FF84820198
:10184000282D39814B8D588D6889792DC3010E94CF
:101850003C21E22FA32FB42F652E6983972E882E6B
:10186000792E05E00E94E221AE2EBA2ECB2ED62C88
:10187000E980F92C082D172D0E942E2259016A01AA
:101880007B01F82F192F06E00E94E2210F2F0E9402
:101890002E2203E00E94E221AE2EBA2ECB2ED62CB1
:1018A000E980F92C082D172D0E94192206E00E94CC
:1018B000E221A32CB22CC984DD84EE84FF84820152
:1018C0000E943E212983388F4CA35BA3C901DA0112
:1018D0000097A105B10529F4612C712C4301639493
:1018E00007C030E4632E32E4732E3FE0832E912C48
:1018F0009C01AD0187E0220F331F441F551F8A95BD
:10190000D1F7288B398B4A8B5B8BCA01B901A401B3
:1019100093010E9445202B8F3C8F4D8F5E8FA32C0F
:10192000B22CC984DD84EE84FF8482012981388D44
:101930004CA15BA160E070E080E090E00E94872015
:1019400064015301E12CF12C87016982BA82CB82B8
:10195000DC82ED82FE820F831887E12CF12C00E0FF
:1019600010E00E943E212983388F4BA35CA36DA316
:101970007EA388A79FA38C899D89AE89BF8927E014
:10198000880F991FAA1FBB1F2A95D1F79250A10952
:10199000B109CB8CDC8CED8CFE8C8C0D9D1DAE1DAD
:1019A000BF1DE98DFA8D80839183A283B383A70144
:1019B0009601C401B3010E943520A888B988CA885D
:1019C000DB88A61AB70AC80AD90AA482B582C682D9
:1019D000D7826086718682869386A32CB22CC984B6
:1019E000DD84EE84FF8482012F8D38A149A15AA1A4
:1019F00060E070E080E090E00E94872059016A0179
:101A00007B018C012981388D4BA15CA16DA17EA148
:101A100088A59FA10E941922A8960FB6F894DEBF50
:101A20000FBECDBFDF91CF911F910F91FF90EF902F
:101A3000DF90CF90BF90AF909F908F907F906F90EE
:101A40005F904F903F902F900895EF92FF920F93E9
:101A50001F93CF93DF931F92CDB7DEB78C01E62E95
:101A60008830910528F4FC01EC5CFC4FF08001C04B
:101A7000F12C8F2D49830E945E0A682F4981063020
:101A8000110534F4982F9378442369F09C600BC0BF
:101A90000630110519F4687F6E290AC00730110558
:101AA00039F4982F9F7880E1E89EB0011124692BCA
:101AB0008F2D0F90DF91CF911F910F91FF90EF909D
:101AC0000C94430ACF93DF93D62FC0E1C80F8C2F1D
:101AD0000E945E0A682FD13011F4606401C06F7BF0
:101AE0008C2FDF91CF910C94430AEF92FF920F93CA
:101AF0001F93CF93DF93C62F7A019091A00521E029
:101B00002093E403909306041092E50310920704D7
:101B1000682F87E095E00E9413028701D0E0C8019A
:101B20008E199F098C179D0744F4F80161918F016C
:101B300087E095E00E941302F2CF81E0DF91CF9120
:101B40001F910F91FF90EF900C94E6092F923F9216
:101B50004F925F926F927F928F929F92AF92BF92BD
:101B6000CF92DF92EF92FF920F931F93CF93DF9369
:101B7000CDB7DEB72D970FB6F894DEBF0FBECDBF41
:101B80003C0149875A876B877C87BAA09C2C2D2CF7
:101B9000ED86302E512E422EC984DA84EB84FC84EB
:101BA00084E190E00E945F228C01E5E0E61530F1CF
:101BB000FC01D082C182862D880F880F880F845D3A
:101BC0000E945E0A8C7F9D859370892BF801828329
:101BD00023829482D701C6012CE0B695A7959795EC
:101BE00087952A95D1F7807F942D9F70C92EC80EB6
:101BF000C5825682932C378268E001C060E0F8E02D
:101C00006F16710448F5F301EC5CFF4F0C946720EC
:101C1000A8018AE20EC0A80182E30BC0A8018AE3F2
:101C200008C0A80182E405C0A8018AE402C0A80196
:101C300082E50E94750D6A2DC3010E94620D07C0E6
:101C4000692D8AE502C0692D8BE50E94430A4B2D60
:101C5000682DC3010E94250DC8012D960FB6F8947A
:101C6000DEBF0FBECDBFDF91CF911F910F91FF90CF
:101C7000EF90DF90CF90BF90AF909F908F907F902C
:101C80006F905F904F903F902F900C94F4222F9282
:101C90003F924F925F926F927F928F929F92AF92FC
:101CA000BF92CF92DF92EF92FF920F931F93CF9349
:101CB000DF93CDB7DEB72E970FB6F894DEBF0FBE19
:101CC000CDBF19013A014B018D879E872801012B59
:101CD000C9F4E0918B05F0918C05EE0FFF1FEE0F1C
:101CE000FF1FE956FA4FA080B180C280D380CE0199
:101CF00001967C0189019301AB016D857E8580E0B1
:101D000090E018C0E0918D05F0918E05EE0FFF1F59
:101D1000EE0FFF1FE956FA4FA080B180C280D3803A
:101D2000FE0131967F0181019A01AB016D857E85AF
:101D300081E090E00E94F00A84E190E00E945F223E
:101D40008C0189859A85AB85BC85F8019083818358
:101D500039814A812B8123702283438334832CE091
:101D6000B695A795979587952A95D1F7807F2D8170
:101D70003E819F819F70890F85833683278341141D
:101D80005104C1F4A80168E08AE10E94750D209217
:101D90007B0530927C0560927D0570927E05809275
:101DA0007F0590928005FD85F09381058E85809357
:101DB00082051AC04A944528B9F4A80168E082E275
:101DC0000E94750D209283053092840560928505EE
:101DD000709286058092870590928805ED85E09344
:101DE0008905FE85F0938A05C8012E960FB6F894F2
:101DF000DEBF0FBECDBFDF91CF911F910F91FF903E
:101E0000EF90DF90CF90BF90AF909F908F907F909A
:101E10006F905F904F903F902F900C94F4222F92F0
:101E20003F924F925F926F927F928F929F92AF926A
:101E3000BF92CF92DF92EF92FF920F931F93CF93B7
:101E4000DF93CDB7DEB769970FB6F894DEBF0FBE4C
:101E5000CDBF29873A874B875C876D877E871C01BA
:101E60004A2CBB8ACC8ADD8AEE8AFF8A088F198FBA
:101E7000988A8F862115E6ED3E07E1E14E07EEE7F1
:101E80005E07E3E06E0771058105910509F068F5CD
:101E90002F37304F4A4F524061057105810591053A
:101EA00009F008F459C02A2D3B2DA601B701C8013D
:101EB000A0E00E94372209F003C1A984BA84CB8430
:101EC000DC84ED84FE84810120E033E245E75EEEB0
:101ED00064E170E080E090E00E943E21422E532EAB
:101EE000642E752E20FF25C01EC02A2D3B894C89EB
:101EF0005D896E897F89888D998DA0E00E94372247
:101F000009F030C125E0422E512C612C712C19862C
:101F100026ED2A8731E13B874EE74C8753E05D870A
:101F20001E86212C312C6FEF461A560A660A760A55
:101F300006C075E0471651046104710439F08FEF53
:101F4000481651046104710400F524C096E0492E3E
:101F5000512C612C712C1EC02A2D3B894C895D8926
:101F60006E897F89888D998DA0E00E94372209F0C3
:101F70009BC090E89987E0EFEA87FAEFFB8722E0C1
:101F80002C871D861E86212C312C8EEF482E512C3D
:101F9000612C712CA301920160E070E0CB01A98457
:101FA000BA84CB84DC84ED84FE84810149823A8347
:101FB0004B835C836D837E838F83988760E070E0C2
:101FC00080E090E00E948720B22FA32FF42EE52E10
:101FD0004B018C01211534404B46544F644171052F
:101FE00081059105A1F098F0F2E04F1A51086108BF
:101FF0007108A301920160E070E0CB0149823A834D
:102000004B835C836D837E838F83988726C02B2FC1
:102010003A2F4F2D5E2DB401C8012F3F374547445D
:10202000584F6D4071058105910509F028F5F2E0E2
:102030004F0E511C611C711CA301920160E070E005
:10204000CB0149823A834B835C836D837E838F838C
:102050009887A984BA84CB84DC84ED84FE848101D2
:1020600060E070E080E090E00E948720B22FA32F14
:10207000F42EE52E4B018C01552466247724EF8540
:10208000F88940825182628273821482158216829C
:1020900017821086118612861386B9835A2E6F2CEA
:1020A0007E2C098B1A8B68C020E8298730EF3A878D
:1020B0004AEF4B8752E05C871D861E86212C312C0F
:1020C000A984BA84CB84DC84ED84FE848101242D30
:1020D0003B894C895D896E897F89888D998D0E94A5
:1020E0003C212983532E3A014B01898B9A8BA30102
:1020F000B401A0E00E94372261F5242D3B894C8970
:102100005D896E897F89888D998D0E943E21022F7D
:10211000132F242F352FD901C8010697A109B10922
:10212000893F9105A105B10538F510E020E030E0C8
:10213000EF85F8890083118322833383148215820B
:10214000168217821086118612861386F1E0F983B3
:1021500001C01982512C612C712C812C912C198A6F
:102160001A8A0AC0198666ED6A8771E17B878EE755
:102170008C8793E09D87A1CF2981352DA301B401E0
:1021800089899A8969960FB6F894DEBF0FBECDBFD4
:10219000DF91CF911F910F91FF90EF90DF90CF9043
:1021A000BF90AF909F908F907F906F905F904F9077
:1021B0003F902F900895DF92EF92FF920F931F931D
:1021C000CF93DF93FC01E080F18002811381D48101
:1021D000C581B681D7809701A8016D2F7C2F8B2FE9
:1021E0009D2D285938424C415109610971098109D5
:1021F0009109273938424C41510561057105810526
:10220000910509F098F49701A8016D2F7C2F8B2F71
:102210009D2D07E00E94E221208331834283538376
:10222000648375838683978387E001C19701A80142
:102230006D2F7C2F8B2F9D2D205331454843510905
:1022400061097109810991092F32314548435105CE
:10225000610571058105910509F098F49701A801C0
:102260006D2F7C2F8B2F9D2D06E00E94E221208375
:10227000318342835383648375838683978386E0A7
:10228000D6C09701A8016D2F7C2F8B2F9D2D205636
:10229000324A4047510961097109810991092F3575
:1022A000324A40475105610571058105910509F0E4
:1022B00098F49701A8016D2F7C2F8B2F9D2D05E0A1
:1022C0000E94E22120833183428353836483758398
:1022D0008683978385E0ABC09701A8016D2F7C2F83
:1022E0008B2F9D2D205C3444414E510961097109A9
:1022F000810991092F3B3444414E51056105710517
:102300008105910509F098F49701A8016D2F7C2FA4
:102310008B2F9D2D04E00E94E22120833183428394
:102320005383648375838683978384E080C0970199
:10233000A8016D2F7C2F8B2F9D2D20583948424CA2
:10234000514061097109810991092F373948424C7F
:102350005140610571058105910509F098F49701D7
:10236000A8016D2F7C2F8B2F9D2D03E00E94E22171
:102370002083318342835383648375838683978369
:1023800083E055C09701A8016D2F7C2F8B2F9D2DC9
:1023900033514548534061097109810991092F3F23
:1023A000324145485340610571058105910509F0A9
:1023B00098F49701A8016D2F7C2F8B2F9D2D02E0A3
:1023C0000E94E22120833183428353836483758397
:1023D0008683978382E02BC09701A8016D2F7C2F05
:1023E0008B2F9D2D36524A40574061097109810952
:1023F00091092F3F35424A405740610571058105DB
:10240000910509F098F49701A8016D2F7C2F8B2F6F
:102410009D2D01E00E94E22120833183428353837A
:10242000648375838683978381E001C080E0DF91B8
:10243000CF911F910F91FF90EF90DF9008952F9211
:102440003F924F925F926F927F928F929F92AF9244
:10245000BF92CF92DF92EF92FF920F931F93CF9391
:10246000DF93CDB7DEB76B970FB6F894DEBF0FBE24
:10247000CDBF622E39874A87252E362E772E2C0126
:10248000A982B98ACA8ADB8AEC8AFD8A0E8B1F8BE5
:10249000988A8F86211501EC30070AE140070DE389
:1024A000500705E0600771058105910509F0C8F442
:1024B0002F3710EF31071AEF410712E0510761057E
:1024C00071058105910509F008F46FC12F3F354D65
:1024D00041415E47634071058105910509F068F44B
:1024E0003BC1612CF1ECF9870AE10A87BDE32B2E91
:1024F00015E0312E712C412C512C298139894A89C2
:102500005B896C897D898E899F89A0E00E94372232
:1025100009F080C09924939414E0E12EF12C00E09E
:1025200010E0EB86FC860D871E87EB84FC840D850E
:102530001E85A801970160E070E0CB01A62CB9844C
:10254000CA84D22CE32CF72C820129833A834B8353
:102550005C836D837E838F83988760E070E080E08A
:1025600090E00E9487202983398B4A8B5B8B6C8B90
:102570007D8B8E8B9F8BFF24F3949F1409F462C193
:1025800010E0812C912C54018394C12CD12C760124
:1025900001C011E007E0CC0CDD1CEE1CFF1C0A950D
:1025A000D1F7C701B601A50194010E9445208B8592
:1025B0009C85AD85BE8567E0880F991FAA1FBB1F4C
:1025C0006A95D1F79250A109B109820F931FA41FF8
:1025D000B51FEF85F88980839183A283B383C501FA
:1025E000B4010E943520C61AD70AE80AF90AC48243
:1025F000D582E682F78280869186A286B386111103
:1026000019C1298139894A895B896C897D898E89BB
:102610009F893DC111E0188FA62CB984CA84D22CA1
:10262000E32CF72C8201298139894A895B896C89DD
:102630007D898E899F890E943E212B873C874D870B
:102640005E878B859C85AD85BE850697A105B10506
:1026500020F4F6E0AF2EB12C0FC0EB84FC840D8586
:102660001E8529E0E21627E0F20601051105D8F0E3
:1026700078E0A72EE7E0BE2EC12CD12CE12CF12C66
:1026800000E010E0298139894A895B896C897D895C
:102690008E899F890E943E21622E39874A87252E86
:1026A000362E772E2C01A62CB984CA84D22CE32C8A
:1026B000F72C8201298139894A895B896C897D8956
:1026C0008E899F890E943C21E22FA32FB42F952E43
:1026D000862E798F8A8FF92F05E00E94E221AE2E97
:1026E000BA2ECB2ED92CE82CF98C0A8D1F2F0E94E4
:1026F0002E2259016A017B018B8F192F06E00E945F
:10270000E2210B8D0E942E2203E00E94E221AE2ED8
:10271000BA2ECB2ED92CE82CF98C0A8D1F2F0E94B3
:10272000192206E00E94E221A62CB984CA84D22C88
:10273000E32CF72C82010E943E21C22ED32EE42EE0
:10274000F52EC114D104E104F10409F054C0812C28
:10275000912C5401839456C0298139894A895B8917
:102760006C897D898E899F89A0E00E94372209F0BB
:1027700040C0A62CB984CA84D22CE32CF72C820149
:1027800020E034E04BE654EF64E170E080E090E05C
:102790000E943E21122FB32FF42FE52FA7E00E94B5
:1027A000372201F516E0B0E01BC0298139894A893A
:1027B0005B896C897D898E899F89A0E00E94372280
:1027C00009F057C010E8612EB0EFB987EAEFEA8749
:1027D00002E0202E312C712C412C512C18E0B7E056
:1027E000F0E0E0E0CF011B87BC879D87EE87912C4E
:1027F0009CCE188E11CFF0E48F2EF2E49F2EFFE0D6
:10280000AF2EB12CF88DF13009F0C3CEAF85B88969
:102810001D921D921D921C921397FD011482158228
:102820001682178281E090E0A0E0B0E08087918777
:10283000A287B387262D39854A85522D632D772DA2
:10284000C20125C0AF85B8891D921D921D921C92B0
:102850001397FD011482158216821782C12CD12C88
:102860007601C3941896CD92DD92ED92FC921B975F
:102870000EC0188E80E8682EB0EFB987EAEFEA87BD
:1028800092E0292E312C712C412C512CC5CE6B9607
:102890000FB6F894DEBF0FBECDBFDF91CF911F9171
:1028A0000F91FF90EF90DF90CF90BF90AF909F90EF
:1028B0008F907F906F905F904F903F902F900895F2
:1028C000DF92EF92FF920F931F93CF93DF93FC0160
:1028D000E080F18002811381D481C581B681D780E7
:1028E0009701A8016D2F7C2F8B2F9D2D20583A41E9
:1028F0004640510961097109810991092F373A410F
:1029000046405105610571058105910509F098F46E
:102910009701A8016D2F7C2F8B2F9D2D07E00E9422
:10292000E2212083318342835383648375838683CA
:10293000978387E0FDC09701A8016D2F7C2F8B2F17
:102940009D2D35534C405109610971098109910947
:102950002F3F34434C4051056105710581059105B8
:1029600009F098F49701A8016D2F7C2F8B2F9D2DD6
:1029700006E00E94E22120833183428353836483F3
:1029800075838683978386E0D3C09701A8016D2F56
:102990007C2F8B2F9D2D3A564841510961097109B1
:1029A000810991092F3F394648415105610571055B
:1029B0008105910509F098F49701A8016D2F7C2FEE
:1029C0008B2F9D2D05E00E94E221208331834283DD
:1029D0005383648375838683978385E0A9C09701B9
:1029E000A8016D2F7C2F8B2F9D2D345D4043510905
:1029F00061097109810991092F3F334D4043510508
:102A0000610571058105910509F098F49701A80108
:102A10006D2F7C2F8B2F9D2D04E00E94E2212083BF
:102A2000318342835383648375838683978384E0F1
:102A30007FC09701A8016D2F7C2F8B2F9D2D385AB9
:102A40004146510961097109810991092F3F374AAE
:102A500041465105610571058105910509F098F41C
:102A60009701A8016D2F7C2F8B2F9D2D03E00E94D5
:102A7000E221208331834283538364837583868379
:102A8000978383E055C09701A8016D2F7C2F8B2F72
:102A90009D2D3055434C51096109710981099109F6
:102AA0002F3F3F44434C5105610571058105910558
:102AB00009F098F49701A8016D2F7C2F8B2F9D2D85
:102AC00002E00E94E22120833183428353836483A6
:102AD00075838683978382E02BC09701A8016D2FB1
:102AE0007C2F8B2F9D2D305A46485140610971092A
:102AF000810991092F3F3F494648514061057105C1
:102B00008105910509F098F49701A8016D2F7C2F9C
:102B10008B2F9D2D01E00E94E2212083318342838F
:102B20005383648375838683978381E001C080E04B
:102B3000DF91CF911F910F91FF90EF90DF9008955B
:102B4000CF93DF93E8E9F1E08491E4E8F1E0D491F8
:102B5000E0E7F1E0C491CC2391F081110E9448029A
:102B6000EC2FF0E0EE0FFF1FE65AFE4FA591B49157
:102B7000EC91ED2381E090E021F480E002C080E060
:102B800090E0DF91CF910895FF920F931F93CF9321
:102B9000DF93EC018B01F82E80E1F80E8F2D0E945F
:102BA0005E0A0115110511F48F7D04C00130110575
:102BB00009F48062682F8F2D0E94430ADD27CC0F15
:102BC000DD1FCE5DDA4F1A870987DF91CF911F9104
:102BD0000F91FF900895CF93DF93CDB7DEB7C0522A
:102BE000D1400FB6F894DEBF0FBECDBF789484B548
:102BF000826084BD84B5816084BD85B5826085BDF9
:102C000085B5816085BD80916E00816080936E0086
:102C10001092810080918100826080938100809178
:102C20008100816080938100809180008160809329
:102C300080008091B10084608093B1008091B000E9
:102C400081608093B00080917A00846080937A00E4
:102C500080917A00826080937A0080917A0081600E
:102C600080937A0080917A00806880937A00109235
:102C7000C10010929C0310929B031092E5031092E6
:102C800007041092E30311E01093E2031092BD03D6
:102C900061E082E10E94710261E083E10E947102C1
:102CA0008091B9008E7F8093B9008091B9008D7FAB
:102CB0008093B90088E48093B80085E48093BC00D9
:102CC0008091A0051093E403809306041092E5031D
:102CD0001092070481E00E94E6098823E9F0E5E804
:102CE000F1E02491E1E7F1E08491882309F448C1FF
:102CF00090E0880F991FFC01EE57FF4FA591B4910A
:102D0000FC01E858FF4F859194918FB7F894EC91AE
:102D1000E22BEC938FBF34C180E00E945E0A90E00A
:102D2000880F892F881F990B0197B1F362E987EB10
:102D30000E94430A80E498E7ADE7B1E080938F05F5
:102D400090939005A0939105B093920510929705EA
:102D5000109298051092990510929A0520917B0582
:102D600030917C0540917D0550917E0560917F05F5
:102D70007091800500E010E08091810590918205BE
:102D80000E94470E2091830530918405409185056E
:102D900050918605609187057091880501E010E0EB
:102DA0008091890590918A050E94470E60E880E134
:102DB0000E94430A60E881E10E94430A60E882E1E0
:102DC0000E94430A60E883E10E94430A60E884E1CC
:102DD0000E94430A60E885E10E94430A60E886E1B8
:102DE0000E94430A60E887E10E94430A6CE080E1A8
:102DF0000E94430A6CE081E10E94430A6CE082E198
:102E00000E94430A6CE083E10E94430A6CE084E183
:102E10000E94430A6CE085E10E94430A6CE086E16F
:102E20000E94430A6CE087E10E94430A00E010E040
:102E300020E030E24FE550EA62E170E080E090E0AF
:102E40000E94470E01E010E020E030E24FE550EA3A
:102E500062E170E080E090E00E94470E10922C0545
:102E600010922B0510922E0510922D051092300510
:102E700010922F05109232051092310510923405F0
:102E800010923305109236051092350581E090E0DE
:102E9000909338058093370590933A0580933905D0
:102EA00060E070E080E090E00E94C41560E070E0B7
:102EB00081E090E00E94C41560E070E082E090E064
:102EC0000E94C41560E070E083E090E00E94C415A9
:102ED00060E070E084E090E00E94C41560E070E083
:102EE00085E090E00E94C41561E070E086E090E02B
:102EF0000E94C41561E070E087E090E00E94C41574
:102F000060E082EA0E94430A60E083EA0E94430A8A
:102F100060E084EA0E94430A60E281EB0E94430A77
:102F200060E881EB0E94430A0BE315E0E12CF12CF1
:102F3000D8011C9211961C92119712961C9212970E
:102F400013961C92139714961C92149715961C9224
:102F5000159716961C92169717961C92085F1F4F8E
:102F600060E0C7010E94C70AF701EF55FA4F1082CF
:102F7000BFEFEB1AFB0AE8E0EE16F104C9F6AFCE9C
:102F800060E08DE00E947102E4E8F1E02491E0E766
:102F9000F1E084918823C9F090E0880F991FFC012B
:102FA000EE57FF4F45915491FC01E858FF4FA59112
:102FB000B4919FB7F894FA013081822F80958323D2
:102FC0008083EC91E22BEC939FBF81E090E09093A3
:102FD0000101809300018CE591EDA6EDB0E08093B6
:102FE000960390939703A0939803B09399038EE769
:102FF00080939A038DE091E09093950380939403DE
:1030000083E791E0909393038093920380E10E9481
:103010005E0A682F636080E10E94430A60E080E0FE
:1030200090E00E94C70A8FEFE8E0F4E0DF011D9214
:103030008A95E9F78E010F501F4F8EE0F80111922B
:103040008A95E9F762E071E0C8010E94BD23C801DA
:103050000E948B08D8018C910E944707282F30E0EE
:10306000AAE2B0E00E946D206B017C01F801818131
:103070000E944707A7019601280F311D411D511DD0
:10308000AAE2B0E00E947C206B017C01D80112967C
:103090008C910E944707A7019601280F311D411D01
:1030A000511DAAE2B0E00E947C206B017C01F80176
:1030B00083810E944707A7019601280F311D411DFA
:1030C000511DAAE2B0E00E947C204B015C01D801B6
:1030D00014968C910E944707880E911CA11CB11C6C
:1030E000F80185810E944707282F30E0AAE2B0E06E
:1030F0000E946D206B017C01D80116968C910E9474
:103100004707A7019601280F311D411D511DAAE255
:10311000B0E00E947C206B017C01F80187810E9455
:103120004707A7019601280F311D411D511DAAE235
:10313000B0E00E947C206B017C01D80118968C9134
:103140000E944707A7019601280F311D411D511DFF
:10315000AAE2B0E00E947C206B017C01F80181852D
:103160000E944707C80ED11CE11CF11CD8011A9619
:103170008C910E944707282F30E0AAE2B0E00E941D
:103180006D202B013C01F80183850E944707A301B4
:103190009201280F311D411D511DAAE2B0E00E948D
:1031A0007C202B013C01D8011C968C910E94470782
:1031B000B301A201480F511D611D711DD501C4014C
:1031C000880F991FAA1FBB1F8A019B01EFE036954C
:1031D000279517950795EA95D1F7017011272227B2
:1031E0003327800F911FA21FB31F97018601000F85
:1031F000111F221F331F4B01AA24BB24E1E08E22A2
:103200009924AA24BB24080D191D2A1D3B1D5F7794
:103210006627772750586F4F7F4F6C017D01F6E18D
:10322000F694E794D794C794FA95D1F7EC2DEF7301
:10323000C55FDE4FE883CB50D140EA2FEF73C45F08
:10324000DE4FE883CC50D1406C017D01EAE0F6947A
:10325000E794D794C794EA95D1F7EC2DEF73C35F49
:10326000DE4FE883CD50D1406C017D01F4E0F6944F
:10327000E794D794C794FA95D1F7EC2DEF73C25F1A
:10328000DE4FE883CE50D14068017901AAE1F6947F
:10329000E794D794C794AA95D1F7EC2DE3708F707B
:1032A000880F880F8E0FC15FDE4F8883CF50D140CB
:1032B000D901C801E4E1B695A79597958795EA9558
:1032C000D1F78F73C05FDE4F8883C051D140D901E1
:1032D000C801FEE0B695A79597958795FA95D1F721
:1032E0008F73CF5EDE4F8883C151D140812F8F73A2
:1032F000CE5EDE4F8883C251D140D901C80112E0B1
:10330000B695A795979587951A95D1F78F73CD5E4A
:10331000DE4F8883C351D140802F83708A019B0187
:103320009CE036952795179507959A95D1F7F0E18A
:103330008F9F000D1124CC5EDE4F0883C451D14015
:10334000DB01CA0126E0B695A795979587952A9542
:10335000D1F78F73CB5EDE4F8883C551D1404F7359
:10336000CA5EDE4F4883C651D140EBE0F1E0EC0F7E
:10337000FD1F3C965E012FEFA20EB11CD5018CE023
:103380008A0D92919D938A13FCCFE0901305F090E3
:1033900014056E013EEBC30ED11CD7011A964D9158
:1033A0005C911B9760E070E0C6010E94B623450166
:1033B0003601BFEF6B1A7B0AD70112962D913C9113
:1033C00013971A968D919C911B97F901E81BF90BA5
:1033D000CF0152964D915C915397841B950BA4019C
:1033E0004A195B09481759070CF093C0F4019191F1
:1033F0004F01D6018C918927D7011696ED91FC914A
:103400001797E80FF11D008110E00217130719F557
:10341000F7014285538541505109B301C6010E940D
:10342000A423D70112968D919C9113971A960D9013
:10343000BC91A02D0817190709F463C01197AC0DB2
:10344000BD1DF7012481358140855185FA014081F8
:10345000040F111D3EC0F3019F012C193D09D70136
:103460001A968D919C911B97281739078CF6D701D6
:1034700014966D917C911597821B930B18962D9144
:103480003C911997D901A80FB91F8C919801280F69
:10349000311DC901D70112962D913C9113978217C6
:1034A00093077CF0821B930BAC01D7010C9002C0F8
:1034B000559547950A94E2F782239323840F951F2D
:1034C000EECFDB01A80FB91F20818C918227819359
:1034D000C3CF081719077CF0081B190BA801F701C7
:1034E000008002C0559547950A94E2F708231923F6
:1034F000040F151FEECFF901E00FF11F80818C93AF
:103500005BCF2DEB30E02C0F3D1FA20FB31F1C92A1
:1035100053CFFE01F496CE0101969F01D6014D9145
:103520006D01D9014E939D01A817B907B9F7D501CF
:103530001C969E01205C3F4F4E914193E217F3078A
:10354000D9F7BE0161587F4F2FE3FC01DB010190E9
:103550000D922A95E1F7FC018B01015C1F4FAB0135
:103560005A0120E030E0D501DD905D017F01E20EDF
:10357000F31ED701DC92275F3F4F2F33310599F7B8
:10358000495F5F4F31964017510751F72FE3FC0118
:10359000DB0101900D922A95E1F7FB013FE3360F25
:1035A0002081422F4695242721933E13F9CF2EE701
:1035B000E0E2F1E0DC0101900D922A95E1F7FC01D7
:1035C00088E094E020E04EE7480F3191332319F072
:1035D000DC011C9208C0DB01A20FB11D3C913E5FD3
:1035E000DC013C932F5F01964813EFCF0E94A0159A
:1035F000892B09F0EEC362E370E080E090E00E9466
:103600004B010E94A015892B09F0E3C361E080E023
:1036100090E00E94C70A61E08DE00E9471028091F3
:103620000001909101010497049770F480E021E07B
:10363000280FE82FF0E0E85FFB4F90819F3F11F0EB
:10364000822FF5CF80939A03212C80919A0328161C
:1036500008F0B0C3E22DF0E0E85FFB4F20818091DD
:10366000940390919503289FF001299FF00D112458
:1036700020919603309197034091980350919903BC
:10368000A4E6B0E00E947C20DC01CB018E0F9F1FDE
:10369000A11DB11D4C015D019C01A50160E070E020
:1036A00080E090E0AFEF0E9422222E373A41464060
:1036B00051056105710581059105B1F0A8F0CF5064
:1036C000DF4F8882C15FD040CE50DF4F9882C25F0B
:1036D000D040CD50DF4FA882C35FD040CC50DF4FE9
:1036E000B882C45FD04017C0E0E8CF50DF4FE88316
:1036F000C15FD040FAE1CE50DF4FF883C25FD040C7
:1037000026E0CD50DF4F2883C35FD040CC50DF4F41
:103710001882C45FD040CB50DF4F1882C55FD040C5
:10372000CA50DF4F1882C65FD040C950DF4F1882A1
:10373000C75FD040C850DF4F1882C85FD040CF501D
:10374000DF4F2881C15FD040CE50DF4F3881C25F4C
:10375000D040CD50DF4F4881C35FD040CC50DF4FC9
:103760005881C45FD040CB50DF4F6881C55FD040E7
:10377000CA50DF4F7881C65FD040C950DF4F888183
:10378000C75FD040C850DF4F9881C85FD040211537
:10379000314C4A415D43654071058105910569F1F0
:1037A00060F1CF50DF4F1882C15FD040B1ECCE50F6
:1037B000DF4FB883C25FD040EAE1CD50DF4FE883EE
:1037C000C35FD040FDE3CC50DF4FF883C45FD040EF
:1037D00085E0CB50DF4F8883C55FD040CA50DF4FB4
:1037E0001882C65FD040C950DF4F1882C75FD040F3
:1037F000C850DF4F1882C85FD040CF50DF4FE880FD
:10380000C15FD040CE50DF4FF880C25FD040CD5076
:10381000DF4F0881C35FD040CC50DF4F1881C45FB9
:10382000D040CB50DF4FB881C55FD040CA50DF4F8A
:10383000A881C65FD040C950DF4FF881C75FD04034
:10384000C850DF4FD880C85FD0409701A8016B2FC8
:103850007A2F8F2F9D2D2115344E4B4054456240B9
:1038600071058105910509F008F4DBC1E0902B0595
:10387000F0902C058BE3482E85E0582E22E235E0AF
:10388000C95EDE4F39832883C751D1408901F201D7
:10389000D12C20813181428153816481758186815F
:1038A000978138962115344E4B405445624071053E
:1038B0008105910561F058F0DD2049F0D801199695
:1038C0008D919C911A978E159F0509F469C2D39426
:1038D0000E5F1F4FB6E0DB12DCCF8091A105811196
:1038E00008C061E080E090E00E94C70A81E0809318
:1038F000A105CF50DF4F2881C15FD040CE50DF4FB0
:103900003881C25FD040CD50DF4F4881C35FD04087
:10391000CC50DF4F5881C45FD040CB50DF4F68811F
:10392000C55FD040CA50DF4F7881C65FD040C950D4
:10393000DF4F8881C75FD040C850DF4F9881C85F94
:10394000D04020933B0530933C0540933D05509378
:103950003E0560933F057093400580934105909329
:103960004205FE01E158FF4F4F01A12CB12CC12CA3
:10397000D12CE12CF12C00E010E00E941F12C75E58
:10398000DE4F2883C951D140C65EDE4F3883CA510D
:10399000D140C55EDE4F4883CB51D140C45EDE4F7F
:1039A0005883CC51D140C35EDE4F6883CD51D140A6
:1039B000C25EDE4F7883CE51D140C15EDE4F888338
:1039C000CF51D140392E00912B0510912C050E942A
:1039D000470E612C712CD201DC901196EC9011975E
:1039E0001296FC90129713960C91139714961C91B3
:1039F00014971596BC91F201C680B780F8E04F0E7F
:103A0000511C2D2D3E2D4F2D502F612F7B2F8C2D96
:103A10009B2DA0E00E94372209F4DEC0C95EDE4F74
:103A2000E881F981C751D1402185328580912B05EC
:103A300090912C052817390709F0CEC0C254DF4FEA
:103A4000D882CE5BD040C154DF4FE882CF5BD040FC
:103A5000C054DF4FF882C05CD040CF53DF4F0883A3
:103A6000C15CD040CE53DF4F1883C25CD040CD53F1
:103A7000DF4FB883C35CD040CC53DF4FC882C45CF7
:103A8000D040CB53DF4FB882C55CD040CE018254CA
:103A90009F4F0E946014C05EDE4F8883C052D140A9
:103AA000C254DF4F2881CE5BD040C154DF4F3881F4
:103AB000CF5BD040C054DF4F4881C05CD040CF5373
:103AC000DF4F5881C15CD040CE53DF4F6881C25C6C
:103AD000D040CD53DF4F7881C35CD040CE010196FA
:103AE0004C01C75EDE4FA880C951D140C65EDE4F93
:103AF000B880CA51D140C55EDE4FC880CB51D1409D
:103B0000C45EDE4FD880CC51D140C35EDE4FE8802A
:103B1000CD51D140C25EDE4FF880CE51D140C15E62
:103B2000DE4F0881CF51D140132DCC53DF4F888118
:103B3000C45CD040CB53DF4F9881C55CD0400E941D
:103B40001F12AA24A394C254DF4F2881CE5BD04019
:103B5000C154DF4F3881CF5BD040C054DF4F488124
:103B6000C05CD040CF53DF4F5881C15CD040CE53B2
:103B7000DF4F6881C25CD040CD53DF4F7881C35C9A
:103B8000D040CC53DF4F8881C45CD040CB53DF4F53
:103B90009881C55CD0402F3F354D41415E47634021
:103BA00071058105910509F008F4A12CAF92C05E62
:103BB000DE4F8880C052D140C980DA80EB80FC8023
:103BC0000D811E812F81388549855A856B857C85BD
:103BD000C3010E94A60D0F90BFEF6B1A7B0AC95E4E
:103BE000DE4FE881F981C751D1403296C95EDE4F80
:103BF000F983E883C751D140F6E06F16710409F0EC
:103C0000EACE80912B0590912C05009711F460E28B
:103C100004C0019709F0C4C060E881EB0E94430A28
:103C2000BFC0E0923B05F0923C0500933D05109328
:103C30003E05B0933F05A0934005F0934105D09217
:103C400042058091A105811108C061E080E090E00B
:103C50000E94C70A81E08093A105CE018F509F4F3B
:103C60000E946014782EE0912B05F0912C05CF5026
:103C7000DF4F2881C15FD040CE50DF4F3881C25F17
:103C8000D040CD50DF4F4881C35FD040CC50DF4F94
:103C90005881C45FD040CB50DF4F6881C55FD040B2
:103CA000CA50DF4F7881C65FD040C950DF4F88814E
:103CB000C75FD040C850DF4F9881C85FD040EF2B1E
:103CC000A9F4A0907B05B0907C05C0907D05D090B4
:103CD0007E05E0907F05F0908005009181051091B0
:103CE0008205DE01A158BF4F4D0114C0A09083058D
:103CF000B0908405C0908505D0908605E09087053A
:103D0000F09088050091890510918A05FE01E1581F
:103D1000FF4F4F010E941F121F92872CA12CC158E8
:103D2000DF4FC880CF57D040C058DF4FD880C05831
:103D3000D040CF57DF4FE880C158D040CE57DF4F3B
:103D4000F880C258D040CD57DF4F0881C358D040CB
:103D5000CC57DF4F1881C458D040CB57DF4F288154
:103D6000C558D040CA57DF4F3881C658D040C957D0
:103D7000DF4F4881C758D040C857DF4F5881C858D7
:103D8000D040C757DF4F6881C958D040C657DF4F72
:103D90007881CA58D04080E090E00E94A60D0F9034
:103DA000609192037091930380E090E00E944B0138
:103DB00023944BCC60E080E090E00E94C70A60E072
:103DC0008DE00E94710262E370E080E090E00E946A
:103DD0004B0180E090E0892B09F408CC0E940000A0
:103DE00005CCEF92FF920F931F93CF93DF93109226
:103DF0000A051092090588EE93E0A0E0B0E08093F8
:103E00000B0590930C05A0930D05B0930E0586E26B
:103E100093E09093080580930705E2E2F5E085E0E2
:103E2000DF011D928A95E9F7109227051092280567
:103E30001092290510922A0580E68093A00580E45F
:103E400098E7ADE7B1E080938F0590939005A0933C
:103E50009105B093920510928C0510928B051092EB
:103E60008E0510928D0510929F0564E170E081E04F
:103E700090E00E944322EC01892B09F4EBC086E01C
:103E800090E0998388838FE390E09B838A831B8AE9
:103E90001A8A80E490E00E945F228C019D838C83CB
:103EA000892B09F442C080E490E00E945F229F8346
:103EB0008E83009711F4C80136C02FE3FC012083E4
:103EC000D801DF961C9201E010E080E090E02A81AA
:103ED0003B8182179307B4F4EE81FF81E00FF11F5D
:103EE0008083EC81FD81E80FF91F0083000F111F13
:103EF00006FF02C0B3E40B272A813B810223132370
:103F00000196E5CF0130110541F484E390E00E9471
:103F10005F2299878887009771F48C819D810E9428
:103F2000F4228E819F810E94F422CE010E94F4220D
:103F3000C0E0D0E08FC023E030E03D872C871F87B2
:103F40000E8723E330E03B872A87198B088B21E01B
:103F5000FC01208323E030E041E0E885F985E20FB1
:103F6000F31F32974083B90164507109E885F985E0
:103F70006F3F8FEF780799F1DB011196AE0FBF1FEE
:103F80008C91E60FF71F882329F150810C811D8148
:103F9000EE81FF81E80FF11D8081F901E80FF11D2D
:103FA000CF01EA81FB818E179F0774F08E1B9F0B58
:103FB0007C01088002C0F594E7940A94E2F78E230E
:103FC0009F238E0D9F1DEFCFF801E80FF91F808111
:103FD000852701C080818C9361507109C7CF0C8106
:103FE0001D818081AE81BF81A80FB11D8C91D90147
:103FF000A80FB11DCD016A817B818617970774F0E8
:10400000861B970BDC01088002C0B595A7950A9422
:10401000E2F7862397238A0F9B1FEFCFD801A80FC3
:10402000B91F8C9180832F5F3F4F2633310509F0F4
:1040300094CF80E090E0E885F985E80FF91F2081B2
:10404000AE81BF81A20FB11D2C91208301968433D4
:10405000910589F7D0931405C0931305DF91CF9193
:104060001F910F91FF90EF900895DB018F939F9325
:104070000E947C20BF91AF91A29F800D911DA39FB4
:10408000900DB29F900D11240895A1E21A2EAA1B43
:10409000BB1BFD010DC0AA1FBB1FEE1FFF1FA217F8
:1040A000B307E407F50720F0A21BB30BE40BF50BF5
:1040B000661F771F881F991F1A9469F7609570957E
:1040C000809590959B01AC01BD01CF010895EE0F45
:1040D000FF1F0590F491E02D0994A29FB001B39FBA
:1040E000C001A39F700D811D1124911DB29F700D01
:1040F000811D1124911D08950E946D20A59F900D92
:10410000B49F900DA49F800D911D11240895DF93FD
:10411000CF931F930F939A9DF02D219FF00D8B9DB0
:10412000F00D8A9DE02DF10D039FF00D029FE00D33
:10413000F11D4E9DE00DF11D5E9DF00D4F9DF00DAA
:104140007F936F93BF92AF925F934F93D5010E947D
:104150006D208B01AC01D7010E946D20EB01E80FAF
:10416000F91FD6010E94D7202F913F91D6010E94BE
:104170006D20C60FD71FE81FF91FAF91BF910E9496
:10418000D7202F913F910E946D20C60FD71FE81FA7
:10419000F91FD6010E946D20E60FF71F9801BE019E
:1041A000CF0111240F911F91CF91DF9108950E94AB
:1041B0006D20460F571FC81FD91F08F43196089568
:1041C000E894DF93CF93FC01DB010E946D207F9385
:1041D0006F93E9019A01AC01BF93AF933F932F9383
:1041E000DF010E946D2026F46C1B7D0B820B930B6C
:1041F0009E01EB01FC010E94D720AF91BF912F914E
:104200003F910E94D720BE01CF01F9012F913F912C
:10421000CF91DF910895689401C0E894F92FF12BB4
:1042200012F00C943F21A0E0B0E0E9E1F1E20C943F
:10423000B121092E059422F40E949B21112392F4AE
:10424000F0E80F26FFEFE094F09400951095B094FD
:10425000C094D094A194BF0ACF0ADF0AEF0AFF0AE4
:104260000F0B1F0B0E944A2107FC0E949B21CDB718
:10427000DEB7ECE00C94CD21689401C0E8948F92F5
:104280009F92CF93DF930E944A21DF91CF919F901D
:104290008F90089588249924F401E401B0E49F9359
:1042A000AA279A158B049C04ED05FE05CF05D007BF
:1042B000A10798F4AD2FDC2FCF2FFE2FE92D982CDE
:1042C000892E982F872F762F652F542F432F322F2B
:1042D0002227B85031F7BF9127C01B2EBF91BB27B3
:1042E000220F331F441F551F661F771F881F991FFA
:1042F000881C991CEE1FFF1FCC1FDD1FAA1FBB1FB0
:104300008A149B04EC05FD05CE05DF05A007B10767
:1043100048F08A189B08EC09FD09CE09DF09A00BBB
:10432000B10B21601A94E1F62EF49401AF01BE01A5
:10433000CD01000C0895609570958095909530950D
:104340004095509521953F4F4F4F5F4F6F4F7F4F97
:104350008F4F9F4F08952F923F924F925F926F928F
:104360007F928F929F92AF92BF92CF92DF92EF9205
:10437000FF920F931F93CF93DF93CDB7DEB7CA1B86
:10438000DB0B0FB6F894DEBF0FBECDBF09942A88B1
:10439000398848885F846E847D848C849B84AA8459
:1043A000B984C884DF80EE80FD800C811B81AA81E6
:1043B000B981CE0FD11D0FB6F894DEBF0FBECDBFB1
:1043C000ED0108950F93083090F0982F872F762FE6
:1043D000652F542F432F322F22270850F4CF220F5E
:1043E000331F441F551F661F771F881F991F0A958B
:1043F000B2F70F91089597FB10F8169400080F93E9
:10440000083098F00850232F342F452F562F672F50
:10441000782F892F902DF4CF0594979587957795D0
:10442000679557954795379527950A95AAF70F9160
:1044300008952A0D3B1D4C1D5D1D6E1D7F1D801FA7
:10444000911F08950024A7FD00942A0F301D401DE0
:10445000501D601D701D801D901D08952A193B0977
:104460004C095D096E097F09800B910B08950024AA
:10447000A7FD00942A17300540055005600570051A
:104480008005900508950F931F93CF93DF93869F28
:104490008001879F100D969F100D1124C8010E9466
:1044A0005F22EC01009729F0A80160E070E00E9413
:1044B000B623CE01DF91CF911F910F910895CF9335
:1044C000DF938230910510F482E090E0E091AB053B
:1044D000F091AC0520E030E0C0E0D0E0309711F181
:1044E0004081518148175907C0F04817590761F4B6
:1044F00082819381209719F09B838A832BC09093AC
:10450000AC058093AB0526C02115310519F0421783
:10451000530718F49A01BE01DF01EF010280F38115
:10452000E02DDCCF2115310509F1281B390B243092
:10453000310590F412968D919C9113976115710538
:1045400021F0FB019383828304C09093AC05809398
:10455000AB05FD01329644C0FD01E20FF31F8193CC
:104560009193225031092D933C933AC02091A90593
:104570003091AA05232B41F420911C0130911D019B
:104580003093AA052093A90520911A0130911B01AF
:104590002115310541F42DB73EB740911E015091D0
:1045A0001F01241B350BE091A905F091AA05E21724
:1045B000F307A0F42E1B3F0B2817390778F0AC0146
:1045C0004E5F5F4F2417350748F04E0F5F1F509323
:1045D000AA054093A9058193919302C0E0E0F0E021
:1045E000CF01DF91CF9108950F931F93CF93DF9366
:1045F000009709F48CC0FC0132971382128200915B
:10460000AB051091AC050115110581F420813181B4
:10461000820F931F2091A9053091AA052817390709
:1046200079F5F093AA05E093A90571C0D80140E09F
:1046300050E0AE17BF0750F412962D913C9113979E
:10464000AD012115310509F1D901F3CF9D01DA0141
:104650003383228360817181860F971F82179307AE
:1046600069F4EC0128813981260F371F2E5F3F4FF7
:10467000318320838A819B8193838283452B29F414
:10468000F093AC05E093AB0542C01396FC93EE9318
:104690001297ED01499159919E01240F351FE217A0
:1046A000F30771F480819181840F951F0296119612
:1046B0009C938E938281938113969C938E931297F1
:1046C000E0E0F0E0D80112968D919C91139700974D
:1046D00019F0F8018C01F6CF8D919C9198012E5F15
:1046E0003F4F820F931F2091A9053091AA052817EB
:1046F000390769F4309729F41092AC051092AB0594
:1047000002C0138212821093AA050093A905DF91BB
:10471000CF911F910F91089581E090E0F8940C944F
:10472000D02385FD0C94C423806291110C94C42382
:1047300081568A51D8F708959111089581568A516A
:1047400008F48052855808956817790768F4FB01CA
:10475000DC01E40FF51FA40FB51F02C002900E92FA
:1047600041505040D8F708950C94C723DC0101C094
:104770006D9341505040E0F70895FB01DC0101903A
:104780000D920020E1F70895992788270895FB01ED
:10479000DC0102C001900D9241505040D8F70895BD
:0447A000F894FFCFBB
:1047A40001004E3043414C4C2041413030004141E6
:1047B4003030004E3043414C4C000000AD058000C9
:1047C40001000001010000000101010101010001DB
:1047D40000010000000100010100000100000001CF
:1047E40001010000010101010001010001010101B9
:1047F40000000001010001000100010100000101AD
:10480400000100010001000001000000000000019F
:10481400010000000000000001010001000001008F
:10482400010100010001000100000101000001007C
:104834000001000000000101010101010101000368
:10484400070A0D1114171B1E2125282B2F32353969
:104854003C01010000000000000100000001010112
:10486400000000010000010001010101000000003E
:104874000000000100000100010000000000000130
:10488400000101000001010001000000010100011C
:10489400000000000101000100010001000100000E
:1048A40001000001000101000000010100010001FC
:1048B40000000001000000000001000001000001F0
:1048C40001010001010000010100010000000101DB
:1048D40001000000000001000100000101000000CF
:1048E40000000000010100010001010000000101BD
:1048F40000000000000000010100000001010001AF
:10490400010000010001000000000000000101009E
:104914000000000000000000000000010001010090
:104924000101000100010101010100010000000179
:10493400000001000001010101010000000100016B
:10494400000000010101010001010000010000005C
:104954000101000100010001000100010101010148
:10496400000100010001010001000100010101003A
:10497400000100010100010101010000000001012A
:104984000001010000000101010001010100010119
:10499400010000010000000101000101000001000C
:1049A40000000101010101010000010100000000FB
:1049B40001010000000100010100010101010001E9
:1049C4000001000000001302E3014302B701DB0110
:1049D400C701B8012C343C444C545C5C4141303038
:0249E4000000D1
:107E0000112484B714BE81FFF0D085E080938100F7
:107E100082E08093C00088E18093C10086E0809377
:107E2000C20080E18093C4008EE0C9D0259A86E02C
:107E300020E33CEF91E0309385002093840096BBD3
:107E4000B09BFECF1D9AA8958150A9F7CC24DD24C4
:107E500088248394B5E0AB2EA1E19A2EF3E0BF2EE7
:107E6000A2D0813461F49FD0082FAFD0023811F036
:107E7000013811F484E001C083E08DD089C08234E0
:107E800011F484E103C0853419F485E0A6D080C0E4
:107E9000853579F488D0E82EFF2485D0082F10E0AE
:107EA000102F00270E291F29000F111F8ED06801E7
:107EB0006FC0863521F484E090D080E0DECF843638
:107EC00009F040C070D06FD0082F6DD080E0C81688
:107ED00080E7D80618F4F601B7BEE895C0E0D1E017
:107EE00062D089930C17E1F7F0E0CF16F0E7DF06D8
:107EF00018F0F601B7BEE89568D007B600FCFDCFD4
:107F0000A601A0E0B1E02C9130E011968C91119780
:107F100090E0982F8827822B932B1296FA010C0160
:107F200087BEE89511244E5F5F4FF1E0A038BF0790
:107F300051F7F601A7BEE89507B600FCFDCF97BE46
:107F4000E89526C08437B1F42ED02DD0F82E2BD052
:107F50003CD0F601EF2C8F010F5F1F4F84911BD097
:107F6000EA94F801C1F70894C11CD11CFA94CF0C13
:107F7000D11C0EC0853739F428D08EE10CD085E9AC
:107F80000AD08FE07ACF813511F488E018D01DD067
:107F900080E101D065CF982F8091C00085FFFCCF94
:107FA0009093C60008958091C00087FFFCCF809118
:107FB000C00084FD01C0A8958091C6000895E0E648
:107FC000F0E098E1908380830895EDDF803219F02E
:107FD00088E0F5DFFFCF84E1DECF1F93182FE3DFCA
:107FE0001150E9F7F2DF1F91089580E0E8DFEE27F6
:047FF000FF270994CA
:027FFE00040479
:0400000300007E007B
:00000001FF
